:020000040800F2
:100000000000011041A8060831230008CD3702087E
:10001000E1A80608E1A80608E1A80608000000001B
:1000200000000000000000000000000091470008F0
:100030009547000800000000994700081DCF000800
:10004000E1A80608E1A80608E1A80608E1A8060854
:10005000E1A80608E1A8060839A200083DA20008A8
:10006000E1A8060841A2000845A20008E928000806
:10007000FD28000811290008252900083929000851
:100080004D29000861290008E1A80608E1A8060832
:10009000E1A80608E1A80608E1A8060849A20008A8
:1000A00095270008BD270008E527000881270008DC
:1000B0000D2800082128000835280008E1A80608B6
:1000C000E1A80608E1A80608E1A80608E1A80608D4
:1000D000E1A8060835230008E1A806084123000826
:1000E0004DA20008E1A806089D47000871280008F5
:1000F00099280008C12800085D2800087529000813
:10010000E1A80608E1A8060849280008E1A80608B1
:100110004D23000859230008E1A80608E1A80608B5
:10012000892900089D290008B1290008C52900086F
:10013000D9290008E1A80608E1A80608E1A80608F0
:10014000E1A80608E1A80608E1A80608F1470008AA
:10015000ED290008012A0008152A00086523000877
:10016000E1A80608E1A80608E1A80608E1A8060833
:10017000E1A80608E1A80608E1A80608E1A8060823
:08018000E1A80608E1A8060849
:10019000D0E907239A422FBFD01AC0688018C01A2E
:1001A000704700BFD0E9092300699A4238BF12188E
:1001B000D31A0138C01A7047D0E90902101AB0FAF0
:1001C00080F04009704700BF0246036A4069D16869
:1001D000C05C01338B4228BF00231362704700BF0D
:1001E000436A8269D154436A0169426B01338B428D
:1001F00028BF00234362D36843F08003D360704775
:10020000436B188810F0100002D01A889B880120D8
:10021000704700BF436B99891A88890610B5044658
:100220000AD592B2900607D5E26A002A29D09888AA
:10023000216B80B29047636B99891A88090692B244
:100240000FD510060DD5D4E909128A4214D0A16940
:100250002069895C99800132B2FBF0F100FB112228
:10026000A262998A1A88C90592B204D5D20744BFFE
:100270004FF6F7721A8010BDDA6822F08002DA6059
:10028000EFE79B88E2696169DBB28B54E269E16860
:10029000636B0132B2FBF1F001FB1022E261CBE7AC
:1002A000036942681F2B10B40AD95468A3F1200CCB
:1002B000202101FA0CF1214207D15DF8044B70476F
:1002C0001468202199402142F7D081690024C86830
:1002D0000C7480684C68016821F00101016020689D
:1002E00094F805C00C4C818934F81C4089B221EA8D
:1002F00004011F2B818107D9A3F1200120238B400A
:100300005DF8044BD3607047202101FA03F35DF8D8
:10031000044B9360704700BF940F070882B0092216
:10032000274B8DF80720DA68D00319D4DA68D10694
:1003300040D4DA68D20541D4DA6812F0E00F3BD13C
:10034000DB6813F0020F14BF082309238DF8073070
:100350009DF80730012B0AD09DF8070002B07047C6
:1003600001238DF807309DF80730012BF4D1144A92
:1003700012E0D368DB0519D4D36813F0E00F17D16E
:10038000D36813F0020F14BF082309238DF8073038
:100390009DF80730012BDFD1D168C8034FF001036E
:1003A000F4D4D368D906E4D50623EFE70223EDE7BA
:1003B0000723EBE70623D4E70723D2E70223D0E79E
:1003C000003C0240704700BF704700BF01207047EB
:1003D000044BD3E90003984288BF03F50063181A61
:1003E000704700BF281F0020054AD2E900318B4228
:1003F000FDD0D1180133C3F30A03087A13607047A4
:10040000281F0020064BD3F8080800B97047D3F81E
:100410000808A0F10500B0FA80F04009704700BF5D
:10042000281F0020012380F849307047064BD3F87D
:100430000C08D3F81028431E90428CBF00200120E6
:100440009B1A03EBC0207047281F002010B5D0F87E
:10045000E83504461B699847032384F812310020CD
:1004600010BD00BF08B5042290F81211D0F8E8358D
:1004700080F8131180F81221DB689847002008BD2E
:1004800008B5D0F8E435DB6903B19847002008BD12
:1004900008B5D0F8E4351B6A9847002008BD00BFB6
:1004A00008B5D0F8E4355B6A9847002008BD00BF66
:1004B000037830B403B30446C0F1010C04EB0C0321
:1004C00014F8015FDBB2002DF8D101335B00DCB220
:1004D000138003230C704B7004785CB10223002559
:1004E0005A1CD2B2CC548D5410F8014F0233DBB2F7
:1004F000002CF5D130BC704702242346E8E700BF4A
:1005000010B5074C2068FF2808D00649D1F81428F8
:1005100001F6180100F080F8FF232360002010BDD1
:1005200000000020281F0020432301480B80704753
:1005300004000020122301480B807047480000206F
:10054000042301480B8070475C00002008B5044B71
:1005500004480A461946FFF7ABFF084608BD00BF2E
:1005600048270020A0B5070808B5044B04480A46F0
:100570001946FFF79DFF084608BD00BF4827002029
:10058000B0B5070808B5044B04480A461946FFF7FA
:100590008FFF084608BD00BF48270020B8B50708F0
:1005A00008B5044B04480A461946FFF781FF084680
:1005B00008BD00BF48270020C4B5070808B5044B94
:1005C00004480A461946FFF773FF084608BD00BFF6
:1005D00048270020D0B50708704700BF704700BF0C
:1005E000704700BF704700BF704700BF704700BF33
:1005F000044B00200522C3F80828C3F82009C3F8DB
:1006000024097047281F0020024B0020C3F8080867
:10061000704700BF281F0020212838B50C4605D0A0
:1006200022282DD0202813D0002038BD0029FBD04F
:10063000072AF9D1194BD3F8280993F82C1993F804
:100640002D2993F82E39206021716271A371EBE797
:100650000029E9D0072AE7D1104DD5F8243913B184
:10066000096800209847206821796279A379C5F844
:10067000280985F82C1985F82D2985F82E39D3E716
:100680000029D1D0022ACFD1044BD3F82039002B36
:10069000CAD0098800209847C6E700BF281F00205D
:1006A00010B4144CD4E900239A4286BF03F5006CC1
:1006B000ACEB02029A1A0A44B2F5006F13D8B1B13A
:1006C00001444A1E013810F801CFE118824203F1BB
:1006D000010381F808C0C3F30A03F4D1636000206A
:1006E0005DF8044B704702205DF8044B70470846E4
:1006F000F6E700BF281F002010B58121044668F0EE
:100700009DF82046012168F099F82046822168F082
:1007100095F8FFF779FF002010BD00BFC16902699D
:1007200010B4002340F20114A0F844410B60D169D9
:10073000846D21F002014FF0010CD161A0F89CC33F
:100740002360D169044821F4003180F82F395DF825
:10075000044BD16118467047281F00202023014810
:100760000B80704760000020122301480B80704707
:1007700080000020042301480B8070479400002073
:100780000A4608B5054920B90548FFF791FE034818
:1007900008BD0448FFF78CFE004808BD582800201B
:1007A000E0B50708F8B5070808B5044B04480A4641
:1007B0001946FFF77DFE084608BD00BF58280020F7
:1007C00010B607082048D0F8E837D0F8EC2730B545
:1007D0009B184FF01A040C8001D11C4830BD1B4AF5
:1007E000D0F8EA174FF0000E10467546B3F1204FCF
:1007F0004FEA137C0CF130040EF1020E2ABF0CF10B
:10080000370C847080F802C0BEF1100FC5704FEA3B
:10081000031300F10200E9D100200446B1F1204F9A
:100820004FEA117303F1300C00F102002ABF373395
:1008300082F812C093740828D4744FEA011102F1AF
:100840000202EBD1014830BD00F0FF1F98000020EC
:1008500008B5044B04480A461946FFF729FE084626
:1008600008BD00BF5828002024B6070808B5044B6F
:1008700004480A461946FFF71BFE084608BD00BF9C
:100880005828002030B60708034BD3F8582CB3F88B
:100890005C3C138300207047281F00204FF4007039
:1008A000034B1060D3F8883C0B600020704700BFFA
:1008B000281F00200020704701207047012070474A
:1008C0000020704710B51C6994420DD396468A18D3
:1008D0008C469442996938BFA4EB0E0C7144624671
:1008E000BDE810406DF096B910BD00BF704700BF65
:1008F000704700BFD0ED007AD0ED036A30EE677A22
:10090000E6EE877AB0EE670AC0ED007A704700BF66
:10091000D0ED017AF5EE407AF1EE10FA09D1DFED73
:100920000E7A60EEA70AB7EE007AC7EE207AC0ED25
:10093000017A31EE277AD0ED007A80ED021AC1EE0D
:10094000076A30EE677AC0ED036AE6EE877AB0EEAA
:10095000670AC0ED007A7047DB0FC94090ED017A5D
:10096000D0ED036AD0ED027A30EE470AA6EE807A27
:1009700090ED000A80ED017A37EE676AE6EE867A3E
:1009800037EEC07AC0ED027AA6EE870A80ED000A43
:10099000704700BFD0ED056AD0ED017A90ED007A86
:1009A00090ED066AD0ED025A90ED035A80ED050AEB
:1009B00066EEA77AC0ED066AE7EE007A90ED077A58
:1009C000E5EE867A90ED086AD0ED045A80ED087A5B
:1009D000E5EE477AE5EEC67AB0EE670AC0ED077A33
:1009E000704700BFD0ED057A90ED006A90ED037A74
:1009F000D0ED025AE6EE007AF0EE406AB0EE670AF9
:100A000090ED016AD0ED047A27EE407A67EEC07A65
:100A1000A6EE267AE5EEA67A90ED066AC0ED067A95
:100A200036EE077A80ED057A704700BF03685A1CDE
:100A300002601970704700BF03685A1C0260197089
:100A4000704700BF024BD3F8B80C03681B68184707
:100A5000281F0020007970470079C0F340107047CC
:100A600000794009704700BF90F83C20034602F02F
:100A7000FF0012B1002283F83C2070472DE9F843B3
:100A800046697EB9D0F80080C8F30D0904460F46C8
:100A9000B9F1000F26D03F68FFF740FC092804D0C9
:100AA0006FF001063046BDE8F8834A4D2B6923F408
:100AB00040732B612B6943F400732B612B6943F066
:100AC00001032B61C8F80070FFF728FC2B69092887
:100AD00023F001032B61E3D1236804332360304604
:100AE000BDE8F8833C4B98452AD303F580439845ED
:100AF00024D303F58043984554D3384B984554D9B3
:100B000003F58033984553D903F50033984552D9FE
:100B100003F50033984551D903F5003398453ED984
:100B200003F5003398454CD903F5802398454BD9FC
:100B3000B8F1016F4BD305200CF076FF4FF0080998
:100B4000FFF7ECFB092804D04FF0FF363046BDE834
:100B5000F883204D2B6923F440732B612B6943F4F8
:100B600000732B612B6923F0F8032B612B6943EA97
:100B7000090343F002032B612B6943F480332B619B
:100B8000FFF7CCFB2B6923F002032B612B690928AB
:100B900023F0F8032B61D7D1D4F800807BE74FF026
:100BA0003809CDE74FF01009CAE74FF01809C7E739
:100BB0004FF02009C4E74FF02809C1E74FF0300992
:100BC000BEE74FF04009BBE74FF04809B8E74FF0E8
:100BD0005809B5E7003C024000400008FFFF00084C
:100BE0002DE9F0410446D0E90030134483421DD87A
:100BF0008E188E4217D00D4604F10C08002701E034
:100C0000AE4210D023695A1C2261234415F8010B0F
:100C10001873042AF4D141462046FFF72FFFAE4255
:100C2000C4E90470EED16069BDE8F0814FF0FF3097
:100C3000FAE700BF2DE9F041204E96F8BC3C002BAE
:100C4000FBD1B9B3014400F1FF384F1ED6F810189C
:100C5000D6F80C3818F8010F4A1CC2F30A029A425F
:100C600034BF002401249B1A314403EBC423012B1D
:100C700081F8C00CC6F810281AD10CF09BF9044674
:100C80000D460CF097F9031B61EB0501B3F57A7F74
:100C900071F10003F5D3D6F80C38D6F8102893423A
:100CA0008CBF002101219B1A03EBC123012BE4D04F
:100CB000B845CBD10020BDE8F08100BF281F00203F
:100CC0000A4B10B5D3F8084804B910BDD3F808385A
:100CD000052BFAD1064C002A0846D4F8C833114631
:100CE000F3DDFFF7A7FFD4F8C83310BD281F00209D
:100CF0002030002090F84820531C0244DBB280F8DA
:100D0000483082F8341090F849200AB1132B03D9E7
:100D1000002280F8482003B970470A4AD2F8081820
:100D20000029F9D0D2F80828052AF5D110B5064CCB
:100D300019463430D4F8C833FFF77CFFD4F8C833F1
:100D400010BD00BF281F00202030002090F8481060
:100D50000023A0F8483001B97047094BD3F80828A0
:100D6000002AF9D0D3F80838052BF5D110B5054C79
:100D70003430D4F8C833FFF75DFFD4F8C83310BD62
:100D8000281F0020203000202DE9F0475D4E1F462F
:100D900006EB80039C68002C00F0AD8004F13E035C
:100DA000A36104F59F73E3614FF48073C4E90433D6
:100DB0002836236866600546E16094F83D00A36329
:100DC000904609F0C9FA814694F8440294F83CA090
:100DD000261D00284FD194F8450268BBD4F8403254
:100DE00083BB390734D418F0020F60D118F0010F1B
:100DF00044D194F9472294F84712D4F84832002A93
:100E000010DB41481B018418DBB284F8003352091F
:100E1000012301F01F0103FA01F140F822103046CE
:100E2000BDE8F087394A01F00F010A441B01DBB22B
:100E300013763046BDE8F08765F03EFDD4F84032C9
:100E4000002BCED0324A116B0B4339071363CAD53E
:100E50000135EDB2B9F1000FCBD040F20673FA06BE
:100E600089F80850A9F8063036D4BB0694F8462213
:100E700045D4322133E065F01FFDACE7504609F060
:100E80006BFA0135EDB20028B3D040F2066205726C
:100E9000C28094F84622022109F052FC94F94722BC
:100EA00094F84712D4F84832002AAADABAE76B1C41
:100EB000DBB2B9F1000F99D089F8083040F206533F
:100EC000A9F8063094F846224846022109F038FC79
:100ED00018F0010F8DD0D1E794F846220221484640
:100EE00009F02EFC94F9472294F84712D4F84832BE
:100EF000002A86DA96E726463046BDE8F0871221BA
:100F0000EDE700BF940F070800E100E0FCEC00E013
:100F1000003802402DE9F047038A8489A4B21C40BE
:100F200082B045D0814688464FF0004501F14C071C
:100F300001F13406B4FA84F325FA03F2D24391B2F4
:100F4000A9F8101014401B3BB8F1000F5DD0042B22
:100F50002CD8DFE803F050463B300300D8F80C30C3
:100F6000D9F82CA033B19B6823B11FFA8AF108F19C
:100F700004009847D8F8243033B19B6823B11FFA96
:100F80008AF108F11C009847D8F83C302BB19B68D7
:100F90001BB11FFA8AF130469847D8F854302BB16C
:100FA0009B681BB11FFA8AF138469847002CC1D1C3
:100FB00002B0BDE8F087D8F80C30D9F834105B687F
:100FC00008F104009847002CB4D1F1E7D8F8243098
:100FD000D9F838105B6808F11C009847002CA9D19B
:100FE000E6E7D8F83C30D9F83C105B6830469847C3
:100FF000002C9FD1DCE7D8F85430D9F840105B685A
:1010000038469847002C95D1D2E7042B07D8DFE863
:1010100003F00319140F0A00D9F840300193019B23
:10102000002C87D1C4E7D9F82C300193019BF7E756
:10103000D9F834300193019BF2E7D9F838300193A5
:10104000019BEDE7D9F83C300193019BE8E700BF35
:1010500038B5284C94F8BC2C012A034603D0022A48
:1010600009D0002038BD2449D1F8CC23A2B984F896
:10107000BC2C002038BD002540F20112C0E95455B7
:10108000C0E95655A0F8442100F5A27167F0E6FCCE
:1010900084F8BC5C002038BD402AD4F80C0819D96B
:1010A000403AC1F8CC2340228118C4F80C1880B211
:1010B000124940F2011401440020C3E95411C3E96C
:1010C0005620A3F84441184603F5A27167F0C6FC08
:1010D000002038BD4FF00005C1F8CC5302EB0001F1
:1010E000C4F80C1808BF022180B208BF84F8BC1CE9
:1010F000DEE700BF281F002020300020E82B002062
:1011000001EB810138B500EBC1010E4DB1F88C1334
:1011100004462846FFF7C4FAE378C4F8A8534021F0
:101120000022C4E9EC12012293422046A4F89C2339
:1011300004F5677108BFC4F8AC5367F08FFC00205A
:1011400038BD00BFF033002038B52A4BD3F8102447
:101150000F2A04D0511CC3F81014002038BD264AB1
:1011600092F8BC5C0021C3F81014002DF5D1D2F820
:101170000C18D2F81048B1F5006F30D0A14235D02C
:1011800002F54C6594BF641AC1F5006415FA81F547
:10119000402C19D82144C2F80C184FF00001C3F8B4
:1011A000CC130CBF0223012382F8BC3C40F2011295
:1011B0000023C0E95455C0E95643A0F8442100F586
:1011C000A27167F04BFCC8E7403CC3F8CC43403108
:1011D0000123C2F80C1882F8BC3C4024E6E7C2F8B0
:1011E0000C581CB1294602F54C65D1E7002382F862
:1011F000BC3CB2E720300020281F002038B5224D2B
:10120000D5F81C3495F834C4044623B195F820343D
:101210005CEA030331D00123E06984F8463140F2EF
:101220000112A4F8442102681849002AA8BFC2F399
:1012300080739B0301EA124143F020030B4363F3E5
:101240001F42BCF1020F026000D038BDE278104BA3
:10125000C4F8A8331F200021C4E9EC01012A4FF093
:101260000101A4F89C1308BFC4F8AC3304F56771FE
:101270002046BDE8384067F0F1BB012165F000F978
:1012800095F834C4C7E700BF20300020DFBFFFFF60
:101290003434002070B590F8CF2590F8D13590F80F
:1012A000CE5590F8D0C590F8CC1590F8CD6505EBEB
:1012B00002250CEB032C90F8D32590F8D23503EBE4
:1012C0000223012284B080F8112101F01F029BB299
:1012D000ADB21FFA8CFC012A04468DF80810ADF857
:1012E0000A50ADF80CC0ADF80E30C0F840318DF8A2
:1012F00009600AD0022A57D0002A3CD001F08001B0
:1013000065F0BEF8002004B070BD90F81231032BD8
:101310002BD15FFA8CFCBCF1010F26D8D0F8E43554
:1013200002A99B689847BDF80E30002BEAD1C4E9AA
:101330004A33C4E94C3304214FF4807284F811110C
:10134000A4F81C2104F58E71204667F019FB636D2B
:10135000C44A1A61E278012AD4D104F2CC545C6107
:101360004FF0802219681A60CCE7204665F050F8EB
:10137000002004B070BD092EF7D801A252F826F063
:101380002B1400083B1500086B13000875150008A6
:101390006B130008A31500084F1400086B13000816
:1013A000B9140008E914000801F0600120295FFA6F
:1013B0008CF334D0012E00F06181032E00F0958172
:1013C000002E9FD190F81221022A00F01B81032ADF
:1013D000CBD11CF0800F40F0A48103EB830300EB22
:1013E000C30393F87633002B00F0A6819E4B0122B5
:1013F000C3F844249D4A0223C4E94E334FF480705D
:10140000002184F81131A4F81C01C4E94C31C4E96D
:101410004A2204F58E71204667F0B2FA72E7D0F8DE
:10142000E43502A99B6898476CE790F81231023BBB
:10143000012B9AD88C4BD0F818210021C3F83C140A
:1014400012B10222C3F83C24894A0223D4E72E0AAF
:10145000022EADF8063000F0CD81032E00F0918110
:10146000012E82D1D0F8EC3580781B680DF1060191
:101470009847BDF80630002B3FF444AFBDF80E206E
:10148000002A3FF43FAF934228BF13464FF48072C7
:101490000221A4F81C210022C4E94A0084F8111199
:1014A000C4E94E33C4E94C3204F58E712046ADF8E0
:1014B000063067F065FA25E7012B7FF456AF90F808
:1014C0001221022A00F04981032A7FF44EAF4FF423
:1014D000807100F588720220A4F81C11C4E94E3313
:1014E00084F81101002190E7EDB25F4E012D86F8DE
:1014F00035543FF63AAF90F81231022B00F02181BB
:10150000032B7FF432AF002D00F07F8190F8101193
:10151000012910D0D0F8E4355B68984796F8351467
:10152000D4F8E43584F810111B6820469847D4F8A5
:10153000E8359B6898470023F9E690F81231023BA2
:10154000012B3FF612AF012D7FF4DCAED0F8E4356D
:1015500000259B68C0F8185102A9984704224FF44F
:101560008073C4E94A55C4E94C5584F81121A4F8A4
:101570001C31E7E6012D00F0CC80022D7FF4C2AED5
:101580005FFA8CF3002B7FF4BDAE02694FEA1C2397
:10159000023B5268032B00F25681DFE803F05B4206
:1015A0006B5F5CEA03037FF4E0AE90F81221032A3C
:1015B0003FF4DBAE016905F07F0680F8146108682E
:1015C0001A4665F30A1202430A604FF4807204213E
:1015D000C4E94A33C4E94C3384F81111A4F81C213E
:1015E00004F58E71204667F0CBF9636D1D4A1A61D0
:1015F000E278012A0DD0002E00F01281022384F837
:1016000012317FE65A063FF47DAE194664F038FF8A
:1016100078E604F2CC525A614FF0802219681A60C1
:10162000E9E7032363F3061201210F4D84F8161135
:101630000421002384F811114FF48071A4F81C11C7
:10164000C4E94A33C4E94C3304F58E712046C5F829
:1016500040247AE6022363F30612E5E7052363F3E9
:101660000612E1E7180008602030002064340020F2
:101670005C340020042363F30612D5E790F81221AE
:10168000022ABFD0032A7FF470AE002D7FF43AAE59
:1016900013F07F023FF44FAF1CF0800F40F0C48086
:1016A00003EB830100EBC10181F8742381F87653C9
:1016B00081F87553282101FB030300EB820293F8A4
:1016C0007713506D03688A1E012A6FF35553D4F8BF
:1016D000E4258CBFC3F30071012161F31C73926890
:1016E000036002A92046904725E790F81221022ABC
:1016F00088D0032A7FF439AE25B9590602D019469D
:1017000064F0BEFED4F8E43502A99B6820469847F1
:1017100011E7D0F8E43502A99B68C0F81851984742
:1017200009E703F07F0303EB830300EBC30393F8A4
:101730001E31002B7FF45AAE454B0022C3F84424DF
:1017400058E6002D3FF40AAF01210322D0F8E4351A
:1017500080F8101180F81221E6E63E4984F8112144
:101760004FF480700022C4E94A11A4F81C01C4E9B6
:101770004E33C4E94C3204F58E71204667F000F90F
:10178000C0E5EDB2052D3FF6F0ADDFE805F02B2307
:101790001B130B03D0F8EC3580789B690DF1060123
:1017A000984766E6D0F8EC3580785B690DF1060164
:1017B00098475EE6D0F8EC3580781B690DF106019C
:1017C000984756E6D0F8EC358078DB680DF10601D5
:1017D00098474EE6D0F8EC3580789B680DF106010D
:1017E000984746E6D0F8EC3580785B680DF1060145
:1017F00098473EE6D0F8E43580789B6A0DF1060103
:1018000098474670C4F8F00533E60222D0F8E43574
:1018100080F8122180F810515B68294698479DE6B0
:10182000012384F812316DE5282303FB020181F8BE
:101830001C2100EB820281F81E5181F81D61906924
:1018400091F81F113EE7012363F30612ECE600BF97
:10185000203000205834002010B5044629B990F8F3
:101860001121032A0DD0002010BDD0F8E4359B696A
:10187000002BF8D090F81221032AF4D198470020C9
:1018800010BDD0F890230B46D0F87C138A4213D9B0
:10189000C078521A0128C4F8902336D08A4228BF53
:1018A0000A4692B2C4E9E22304F55D71A4F87433E8
:1018B000204667F065F8D6E7D0F8E4351B691BB120
:1018C00090F81221032A1ED000234FF480720421C5
:1018D000C4E94A33C4E94C3384F81111A4F81C213B
:1018E00004F58E71204667F04BF8636D104A1A615B
:1018F000E278012AB7D104F2CC545C614FF0802227
:1019000019681A60AFE79847DEE78A42D4F8800387
:10191000A4F8743328BF0A46084492B2C4E9E2230B
:1019200004F55D71C4F88003C4F88403C0E700BF08
:101930001800086038B5044649B990F81131022BF7
:1019400011D094F81631012B40D0002038BDD0F8CA
:10195000E4355B69002BF8D090F81221032AF4D10A
:101960009847002038BDD0F83831D0F82421934270
:1019700036D9C178012908BFD0F82811A3EB02039A
:1019800018BFD0F82821C0F8383108BF52189BB2D0
:101990004FF480710025C0E94C35A0F81C11C0E956
:1019A0004A2200F58E7166F0EBFFE378C4F88053AD
:1019B000012BC4E9E255A4F8745308BFC4F884535A
:1019C00004F55D71204666F0DBFFBAE72A4B226919
:1019D000D3F840145160002384F81631002038BD3C
:1019E000D0F83C31B3FBF2F502FB1535ADB99A42A4
:1019F00013D8D0F8402193420FD24FF48073A0F84F
:101A00001C31C0E94A55C0E94C5500F58E7166F0AD
:101A1000B7FFE378C4F84051C8E7D4F8E435DB6891
:101A20001BB194F81221032A23D0E2780023012A63
:101A30004FF0050108BFC4F88433C4E9E23384F8E9
:101A40001111C4F88033A4F8743304F55D71204695
:101A500066F096FF636D094A1A61E278012A7FF405
:101A600070AF04F2CC525A614FF0802219681A60AC
:101A700067E720469847D8E7203000201800086024
:101A8000F8B50B7813F060060D46044620D0202EE2
:101A900025D1CE884EB31B0649D5384F68783246DB
:101AA0003946FEF7B9FDEB880222002684F81121A1
:101AB0004FF48072C4E94E33C4E94A77C4E94C3626
:101AC000A4F81C2104F58E71204666F059FF0AE047
:101AD0004B780A2B17D00B2B0ED0062B03D12046A8
:101AE00064F096FC02263046F8BD02224878114484
:101AF000FEF792FD3046F8BD8B78002B3AD1204B93
:101B0000C3F84864EFE7022280F811214FF4807295
:101B1000A0F81C211B4A0123C0E94E33C0E94A2228
:101B2000C0E94C3600F58E7166F02AFFDBE7164BF4
:101B3000164A4978116003F618020321C0E9E466E9
:101B400080F81111C0F88863C0F88023C078C3F80A
:101B5000146801284FF00003C4F88C33A4F87433E0
:101B600004F55D7108BFC4F88423204666F008FFC1
:101B70000026B8E764F04CFCB5E700BF4027002022
:101B80002030002068340020281F002000000020A2
:101B9000002310B519460446402266F081FE8021DC
:101BA00020460023402266F07BFED4F8E835A0787A
:101BB000012284F812215B689847002010BD00BF05
:101BC00010B5022304464022812166F069FE2046BA
:101BD00002234022012166F063FE204603230822EF
:101BE000822166F05DFE0E4B0222A3F84C20FEF728
:101BF000FFFCE2780B4BC4F8A83340200021C4E975
:101C0000EC01012A4FF00101A4F89C13204604F5D1
:101C1000677108BFC4F8AC3366F020FF002010BD28
:101C200000000020F033002070B5812182B004460E
:101C3000314E66F003FE0121204666F0FFFD0025CF
:101C4000022340228121204686F82F5966F028FE83
:101C5000012102234022204666F022FE274B86F80F
:101C60002F59D3F84C2483F83454126828469047EF
:101C70000095009BE16843F010030093009B0B610B
:101C80000A691F4B009203E00A690092013B02D0EF
:101C9000009AD006F8D400230193019B43F020035F
:101CA0000193019A164B012060F38A120192019A66
:101CB0000A610A69019203E00A690192013B02D0BC
:101CC000019A9206F8D4E2780E4BC4F8A8330021AA
:101CD0001F20C4E9EC01012A4FF00101A4F89C1374
:101CE00004F5677105D0204666F0B8FE002002B00A
:101CF00070BDC4F8AC33F6E7281F00202030002068
:101D0000400D0300343400202DE9F047089F884639
:101D100015460021202204461E466EF01BF94FB1E5
:101D20003B68E3811B0C23827B687A89E3821B0C6E
:101D300062822383404667F075FDEB0619D4431E8B
:101D4000B8B108EB000701E0013B12D317F801CD51
:101D5000BCF12E0FF8D1C01A421E032AA8BF0322DD
:101D6000082B03F1010AA8BF08239146C2441A4672
:101D700006E008280246C246A8BF08224FF0000924
:101D80004FF0203341462360636004F1080720468A
:101D90006BF040FF174B23815146BB704A463846D3
:101DA0006BF038FF611EE31D11F801CFACF1610E3D
:101DB000BEF1190F9CBFACF1200C81F800C08B4222
:101DC000F2D1384604F10B0110F8013BA3F1610296
:101DD000192A9CBF203B00F8013C8842F4D118230B
:101DE0002373330CA382E572099B6683E361BDE82C
:101DF000F08700BF202020002DE9F04FDFF89494F9
:101E0000D9F8580CB9F85C4C448387B0002B00F02B
:101E1000DE8001F5FE781344DFF87CB403931646A8
:101E200001F12007C24621E0002E64D0D9F8943C8D
:101E3000B34200F0D180D9F8903CB34200F0048165
:101E4000D9F8983CD9F89C1CB3424BD8B14200F267
:101E50009E81711A204664F089FA039B01369E42E6
:101E600007F500770AF5007A00F0AD80D9F8A05C9C
:101E7000B542A7F12004D7D8751BD9F8B08C05F06E
:101E80000702EB080492D8F830200233934203D3C0
:101E9000D8F8382093420BD941461846059364F090
:101EA00035FA059B8046002800F09181C9F8B00CF6
:101EB00098F80420002A40F03981D8F82850002DE5
:101EC00000F07E81D8F830209B1A049A02EBC303FD
:101ED000D8F80C20204602EB43224FF40071434611
:101EE000A847BAE7B142B4D920464FF400720021A6
:101EF0006EF030F8B1E74FF40072314620466EF0D4
:101F000029F8802387F89E310C2387F8A231D9F86D
:101F1000903CD74AD9F8881CC4F8C6319342C4F81B
:101F2000CA1100F33981D34AD34C82FB03021A440D
:101F3000D817C0EB621284FB0254D04D85FB03C559
:101F4000C0EB2530C2EB821587F8A1015B1B801026
:101F500020F03F0001330343144487F8A031D31726
:101F6000C3EBE4142244C24B87F89F214A1E9A42D5
:101F700000F31E81BF4BC04883FB02311144D317CD
:101F8000C3EB611180FB0140BC4C84FB0254C3EBEA
:101F90002433C1EB811487F8A531121B9B1023F069
:101FA0003F0301321343084487F8A431CB17C3EB36
:101FB000E010014487F8A311552387F8DE31AA23E6
:101FC00087F8DF3149E7D9F8580CB9F85C4C04833D
:101FD000002007B0BDE8F08F4FF0FF3384F8EC31FC
:101FE00084F8ED3184F8EE3184F8EF31D9F8A83C6B
:101FF000C4F8E8315223237063706123A37084F81E
:10200000E73141230025E37084F8E631722384F838
:10201000E43184F8E5314FF4F0722946A7F11C0051
:102020006DF098FF5523C7F8D051C7F8D451C7F8C1
:10203000D85184F8FE316FF0550384F8FC5184F8D0
:10204000FD5184F8FF3108E700214FF4007220466B
:102050006DF080FF8A4A03CA47F81D0CEB2007F891
:10206000200C582007F81F0C902047F8191C07F87F
:102070001E0C002302220821F820E372227307F8C5
:10208000131CA273E37307F8102C07F80B0CD9F894
:10209000900C84F82C20D9F8882C6376121A2262CE
:1020A000D9F8980CD9F89C2CE376121A3F202076A8
:1020B0004FF0FF30A0763E20207701206377A37792
:1020C000E37784F82D3084F82E3084F82F30626264
:1020D00084F8300084F8313087F82610802187F8A2
:1020E0002010292187F82210942187F823100E212F
:1020F00087F824100D21634A87F82510552187F8A9
:10210000DE11AA2187F8DF1103CA5F4BC7F8270049
:10211000C7F82B1003CB1388A7F82F309378C7F894
:102120003200C7F8361087F8313096E64FF4007267
:10213000002120466DF00EFF049B002B4ED1D8F8F5
:102140004030002B00F0AA80049AD8F830304F4974
:10215000CDE9002220461122FFF7D6FDD8F8403005
:102160001A6C002A00F0AD80049A1B6BCDE90022A6
:10217000474911223846FFF7C7FDD8F8448007F1D8
:1021800020044FF4E075B8F1000F3FD165E6F11A75
:10219000204664F0EBF860E6FF2387F89F3187F86C
:1021A000A13187F8A031324B4A1E9A427FF7E2AE46
:1021B000FF2387F8A33187F8A53187F8A431FBE620
:1021C000294620464FF400726DF0C4FE45E6A7F1A3
:1021D000240343F804BF9A45FBD13EE6D8F84030CB
:1021E000049AD8F84480002B0CBF01230223C3EBD0
:1021F00002154346002B3FF430AE013D9B6CF9D1F4
:1022000098464FF40075002B3FF427AE2544203448
:10221000234620354446049698460EE05CF81C1B85
:10222000236BCDF800C000260196FFF76DFDA46C6E
:1022300008F12008CCB1454517D02379A44604F114
:102240001C0E1122A8F12000002BE7D1627926692B
:10225000236B216842F02102CDE900E6FFF754FD2F
:10226000A46C08F12008002CE5D1049EF5E500BF20
:10227000FF03FB00832008828180808097554541C1
:1022800040B607084CB6070858B6070810BD07083F
:1022900028BE0708281F0020DEADBEEF049BD9F83A
:1022A0008C1CCDE9003320460822FFF72DFDD8F81D
:1022B0004480B8F1000F3FF4D0AD3C464FF4F075C8
:1022C000A4E7049BCDE9003352E700BF8C461346D8
:1022D00001466246184645F05DB900BF1049114BF2
:1022E000D1F8882042F4700210B4C1F888201A682E
:1022F0000D4C002042F001021A6098601A6822F02A
:10230000847222F480321A605C601A68074C22F4EE
:1023100080221A60D8608C605DF8044B704700BF63
:1023200000ED00E0003802401030002400000008FA
:10233000704700BF0148FDF76DBF00BFB800002027
:102340000148FDF767BF00BF040300200148FDF707
:1023500061BF00BF500500200148FDF75BBF00BF13
:102360009C0700200148FDF755BF00BFE809002089
:10237000704700BF704700BF30B40C4C00222346AA
:1023800004E00132092A03F114030CD093F804C0CD
:102390008445F6D1DD68294201D10029F1D114200C
:1023A00000FB024000E0002030BC7047300C0020F1
:1023B00038B5D0E9004307EE902A1B68354A2068FB
:1023C0000139934204688DB216D002F580629342BF
:1023D00012D002F5705293420ED002F58062934201
:1023E0000AD002F58062934206D02B4BD3F8E43C2E
:1023F0005B0807EE103A04E0274B03F6E44393ED45
:10240000007ADFED266AB8EE477AF8EE677A87EE53
:10241000270A30EE260A68F0E9FD1E4A23880138B3
:10242000944280B29BB212D002F5806294420ED0E8
:10243000B4F1804F0BD0A2F58032944207D002F560
:102440008062944203D002F58062944202D123F06C
:1024500070039BB2124A944212D002F580629442F9
:102460000ED023F4407302F56C429BB29442238059
:10247000E56220850AD1002323860123A38238BD8B
:102480002380E56220850123A38238BD054B9C4251
:10249000F1D0F8E700000140000000200AD7233CFB
:1024A000001000400004014070B54068837903F0DB
:1024B000020213F0040300F0C9804FF0000E13462F
:1024C00004247246754690F805C0BCF1030F30D85D
:1024D000DFE80CF08E5F30020368188C20F4805027
:1024E0000004000C1884188C9C8820F40050000410
:1024F0002A43000C40EA0232988B6C4D20F4E640EF
:102500000004000CAB42A4B240F4C04000F0B08024
:1025100005F58065AB4200F0AB809C809883196420
:102520001A849A8B22F400621204120C42F40062A4
:102530009A8370BD2A4305685C4E288C20F4807015
:102540000004000C2884288CB5F804C020F4007026
:102550000004000C40EA0222A88B20F07300000463
:10256000000CB5421FFA8CFC40F0600073D006F5F9
:102570008066B5426FD0A5F804C0A883E9632A84B9
:10258000AB8B23F008031B041B0C43F00803AB8345
:1025900070BD2A430568454E288C20F010000004C9
:1025A000000C2884288CB5F804C020F0200000041A
:1025B000000C40EA0212288B20F4E6400004000CD4
:1025C000B5421FFA8CFC40F4C04061D006F580662D
:1025D000B5425DD0A5F804C02883A9632A842B8B5B
:1025E00023F400631B041B0C43F400632B8370BDB6
:1025F00000682E4E2A43058C25F001052D042D0C74
:102600000584058CB0F804C025F002052D042D0CBE
:102610002A43058B25F073052D042D0CB0421FFABB
:102620008CFC45F0600528D006F58066B04224D0C9
:10263000A0F804C0058341630284038B23F00803E0
:102640001B041B0C43F00803038370BD4FF4807E12
:102650001C46012537E722F4006242EA032222F4F5
:1026600080622CF4405C42EA04224CEA0E1C82E7B1
:1026700024F4804444EA8E144FE74FF6F376164074
:102680002CF4407C46EA03024EEA0C0C2243CFE7CE
:1026900022F0800242EA031222F040022CF4406C45
:1026A00042EA04124CEA8E0C94E700BF000001409D
:1026B00070B4EFF31182102383F31288C468466864
:1026C000A5682B6823F001032B603568114B7679E0
:1026D00033F81660AB899BB223EA0603AB8123690A
:1026E00065681F2B11D9203B202404FA03F3EB600B
:1026F000D3B283F31188C3689B6859601A680124B8
:1027000022431A60047470BC7047202404FA03F357
:10271000AB60EDE7940F070803681A7D012A04BF38
:1027200002221A7593F82C100CBF4FF4007200228D
:10273000012904D1022183F82C1042F4806293F81D
:102740004410012905D093F85C1001290AD072B910
:102750007047022183F8441093F85C10012942F479
:10276000006204D1022183F85C1042F48052416877
:10277000096800234B628B899BB21A438A81704798
:10278000024B0348D3F85014FEF7C4BB203000209E
:102790000000014010B5064C0648D4F85014FEF76E
:1027A000B9FBD4F870140448BDE81040FEF7B2BB82
:1027B00020300020000001400040014010B5064CD0
:1027C0000648D4F85014FEF7A5FBD4F87414044856
:1027D000BDE81040FEF79EBB203000200000014005
:1027E0000044014010B5064C0648D4F85014FEF7DA
:1027F00091FBD4F878140448BDE81040FEF78ABB7A
:10280000203000200000014000480140034B4FF001
:102810008040D3F85414FEF77DBB00BF2030002069
:10282000024B0348D3F85814FEF774BB2030002045
:1028300000040040024B0348D3F85C14FEF76ABB67
:102840002030002000080040024B0348D3F86014F9
:10285000FEF760BB20300020000C0040024B034814
:10286000D3F86C14FEF756BB203000200004014062
:1028700010B5064C0648D4F86C14FEF74BFBD4F8A0
:102880007C140448BDE81040FEF744BB2030002013
:10289000000401400018004010B5064C0648D4F86A
:1028A0006C14FEF737FBD4F880140448BDE81040E0
:1028B000FEF730BB2030002000040140001C004027
:1028C00010B5064C0648D4F86C14FEF723FBD4F878
:1028D00084140448BDE81040FEF71CBB20300020E3
:1028E00000040140002000400348D0F8F43C13B13C
:1028F00000F6E84018477047000000200348D0F871
:10290000143D13B100F6085018477047000000202E
:102910000348D0F8343D13B100F6285018477047EB
:10292000000000200348D0F8543D13B100F6485091
:1029300018477047000000200348D0F8743D13B1D9
:1029400000F6685018477047000000200348D0F890
:10295000943D13B100F688501847704700000020DE
:102960000348D0F8B43D13B100F6A850184770479B
:10297000000000200348D0F8D43D13B100F6C85041
:1029800018477047000000200348D0F8F43D13B109
:1029900000F6E85018477047000000200348D0F8C0
:1029A000143E13B100F6086018477047000000207D
:1029B0000348D0F8343E13B100F62860184770473A
:1029C000000000200348D0F8543E13B100F64860E0
:1029D00018477047000000200348D0F8743E13B138
:1029E00000F6686018477047000000200348D0F8E0
:1029F000943E13B100F6886018477047000000202D
:102A00000348D0F8B43E13B100F6A86018477047E9
:102A1000000000200348D0F8D43E13B100F6C8608F
:102A2000184770470000002002683649002310B4A0
:102A300022F0010221248842026003604360836027
:102A4000C3600361446138D02F4B98422ED02F4B86
:102A500098423CD02E4B984240D02E4B984232D0D8
:102A60002D4B984241D02D4B984246D02C4B98424A
:102A700017D02C4B98423CD02B4B984216D02B4B66
:102A8000984224D02A4B984228D02A4B98421AD0F8
:102A9000294B984229D0294B98422ED0284B984256
:102AA00008D14FF03D5243F8AC2C03E04FF4746270
:102AB00043F8202C5DF8044B7047224B5DF8044B23
:102AC0003D229A607047204A43F8642CF2E74FF4A5
:102AD00074125DF8044B43F8382C70474FF0746261
:102AE0005DF8044B43F8502C7047184A43F87C2C8F
:102AF000E0E73D2243F8082CDCE7154A43F8942C24
:102B0000D8E700BF106002402860024040600240E9
:102B1000586002407060024088600240A06002403D
:102B2000B8600240106402402864024040640240E1
:102B3000586402407064024088640240A06402400D
:102B4000B8640240006002403D000020400F0020B9
:102B500000003D2000222DE9F04713460D684FF09C
:102B6000010E032604E00133102B02F1020239D0DA
:102B70000EFA03FC3CEA0504F5D1076806FA02F4F4
:102B800027EA040707600F79D0F800A007FA02F9D6
:102B9000013F49EA0A09012FA046C0F800906FEAF8
:102BA000040411D887683C4084604C79876894405D
:102BB0003C438460446824EA0C0444608C79476890
:102BC0009C40A4B23C434460C46824EA0804C46046
:102BD000CC79C768944001333C43102BC46002F1A8
:102BE0000202C5D1BDE8F0872DE9F0412348244F0A
:102BF000244E254C82B0382200216DF0ABF900251F
:102C000057F825103246002301E054F83320914252
:102C10002ED001330E2BF8D10020053563F04CFE89
:102C20002D2DEDD1DFF85880184F08F1B4054FF085
:102C3000007698F8040007F08FFB08F114080446AA
:102C400088B1036803F13F4303F57E0307EB932349
:102C500093F8C80063F030FEA388019620680093C3
:102C60006946FFF777FFA845E3D102B0BDE8F081E0
:102C7000064A02EBC30393F85C00CEE770340020F1
:102C8000300C002000000140EC0F0708940F0708EB
:102C9000224A936803F00C03042B10B421D0082BB4
:102CA00022D01F4B03601D4C1E4AA168C1F30311C3
:102CB000114491F8E81ECB404360A168C1F3822122
:102CC000114491F8E81E23FA01F18160A1685DF8D2
:102CD000044BC1F342310A4492F8E82ED340C3605A
:102CE0007047114B0360DEE75368516813F4800F9F
:102CF00001F03F01536814BF0B4A094AB2FBF1F1DE
:102D0000064A5268C2F30142C3F38813013201FB41
:102D100003F35200B3FBF2F30360C4E70038024050
:102D20000024F4000000002000127A0070B5446B0B
:102D30008668A38923F400531B041B0CA3818279AA
:102D40000546407912F0040F14BF4FF4805C4FF039
:102D5000000C110310F0010F4FEA02220CBF0023F8
:102D6000042302F48062800748BF43F0080342EA6C
:102D70000C021343228A92B201F4005122F4405211
:102D80000A432282A28922F4B05222F00C021204D9
:102D9000120C1A43A281A38A23F440731B041B0C58
:102DA00084B0A3826846FFF773FF244B9C4205D092
:102DB00003F580639C4201D0029A00E0039AA38944
:102DC0001F491B0402EB82024CBF7300B30002EBED
:102DD0008202B2FBF3F3A1FB0302A089520964262D
:102DE000000406FB12334FEA02121FD41B013233D8
:102DF000A1FB0313C3F3431313439BB22381AB79AA
:102E00006A6B13F0080F938A0AD09BB243F0080351
:102E1000938293899BB243F40053938104B070BDB5
:102E200023F008031B041B0C9382F2E7DB00323310
:102E3000A1FB0313C3F342131343DEE70010014069
:102E40001F85EB512DE9F8431D46344B9DF820605A
:102E50009DF8249098428846174646D0304B9842B9
:102E60004BD0304B984250D02F4B984235D02F4BFF
:102E700098422ED14B46324629460520FDF784FF65
:102E800004460023C4E90B87C4E90733C4E90933C6
:102E90006671A56084F806902046FFF747FFF107AA
:102EA000626B0ED4B30707D493899BB243F40053EB
:102EB00093812046BDE8F883D36843F08003D36054
:102EC000F2E74FF6DF731380D36843F02003D3603B
:102ED000E8E700242046BDE8F8834B463246294601
:102EE0000420FDF751FF0446CBE74B463246294606
:102EF0000020FDF749FF0446C3E74B46324629460A
:102F00000220FDF741FF0446BBE74B463246294607
:102F10000320FDF739FF0446B3E700BF001001406E
:102F200000480040004C00400050004000140140A8
:102F30008160FBE64171F9E62DE9F043DFF8148288
:102F400008EBC00985B00546C70099F8FC0E07F0EC
:102F500003FA044699F8FD0E07F0FEF9064699F8C3
:102F6000FE0E63F0A9FC6B1CDBB2002C00F0AD8000
:102F700040F60C122372E280002E00F0C380337200
:102F800040F60C232046F38004223A2107F0D8FBB8
:102F9000042230463A2107F0D3FB08EB0703624ACC
:102FA000D3F8F84E944200F09880604B9C4200F0B9
:102FB0009E805F4B9C4200F0AB80474497F8FF2E09
:102FC000022A5CD0032A7ED05A4B5B4E012A18BFDE
:102FD0001E46A7886846FFF75BFE27F03F07029B67
:102FE000564AB3FBF6F63F04A2FB03233F0C47EA25
:102FF0009347A780228822F001021204120C22803B
:10300000B2B2C6F30B069B0C002E59D04FF496714A
:1030100001FB03F34A49A1FB03139B0901339BB254
:1030200042F400422384A2832388464A9BB243F0A1
:1030300001032380238823F4816323F002031B040C
:103040001B0C4FF4804143F480632380218123884B
:1030500023F080031B041B0C238023889BB202EB0C
:10306000451243F0010323800121002382F8885494
:1030700082F8891482F88A3405B0BDE8F083A68806
:103080006846FFF705FE26F03F06029A2B4B3604F2
:10309000A3FB0213360C46EA9346A680218821F052
:1030A00001010904090C21809B0C27490133920975
:1030B0002384A1FB02329209042A38BF0422B2E71A
:1030C00042F00102A2E7214E83E7002E3FF465AFF4
:1030D000337240F60C23F3805AE71D4B1A6A42F410
:1030E00000121A621A6A22F400121A6265E703F5E6
:1030F000F0331A6A42F480021A621A6A22F48002D9
:103100001A625AE7042220463A2107F019FB44E7E5
:1031100003F5EE331A6A42F400021A621A6A22F4C4
:1031200000021A6249E700BF005400400058004006
:10313000005C0040804F1200009F240083DE1B4390
:10314000D34D621020300020632D3E05C0270900BA
:1031500000380240000000202DE9F047954D90F91D
:1031600000108046807805EBC1060138CC0090B095
:10317000D6F8F81E14282ED8DFE810F053012601E7
:10318000150057006100A200AA00CB01BD017D001F
:10319000870045020D02E001C500D500300038006F
:1031A000AA019C015B01888A0C8B81B2824841EAAA
:1031B000044130EA010100F02681D8E90210521AD8
:1031C00042F2107163EB00038A4273F1000302D3F1
:1031D000152388F8023010B0BDE8F08798F8130086
:1031E0000882C8E90223122088F80200888A0C8B22
:1031F00080B240EA0440714C34EA000000F0B6802E
:1032000000200E900F9001200F910E900E99002932
:1032100000F01E820F9914310F910F99096849052A
:10322000CBD5142388F80230D5E798F8110000F0C8
:10323000FE000882C8E90223052088F80200888A77
:103240000C8B80B240EA04405D4C34EA000000F090
:10325000A48000200090019001200191009000992D
:10326000002900F001820199143101910199096846
:103270004F05D6D4A1E798F8110040F0010008826C
:10328000C8E902230B2088F80200888A0C8B80B2E0
:1032900040EA04404B4C34EA00006FD00020049018
:1032A00005900120059104900499002900F0D68131
:1032B000059914310591059909684D05B1D47CE74C
:1032C00098F813000882C8E90223072088F8020052
:1032D000888A0C8B80B240EA0440384C34EA000003
:1032E0005FD0002002900390012003910290029988
:1032F000002900F0C58103991431039103990968ED
:103300004E058ED459E7088820F480600004000C34
:10331000088098F8110000F0FE000882C8E9022336
:10332000102088F80200888A0C8B80B240EA0440A2
:10333000234C34EA000012D000200C900D900120A4
:103340000D910C900C99002900F094810D99143185
:103350000D910D99096848053FF563AF2DE798F881
:103360001330FF2B06D198F810301BB1132388F8C7
:10337000023030E7112388F802302CE7D8F8140027
:10338000012800F09381022800F049820E20098B69
:1033900088F80200C8E902231DE7062388F80230F6
:1033A00019E7D8F81400002800F07081082388F885
:1033B000023010E700000020010003008400070035
:1033C0008200070002000300088820F40060000467
:1033D000000C0880088880B240F48060088008886B
:1033E00080B240F480700880032088F80200888A48
:1033F0000C8B81B2AB4841EA0441C8E9022330EAB0
:1034000001037FF4E8AE98F81230002B40F0D3812E
:1034100098F81330FF2B00F04682042388F802301E
:10342000D9E6098889053FF5C8AE002388F802303F
:10343000D1E62C4494F8FC0E06F08EFF064694F874
:10344000FD0E06F089FF984AB2F8E83401339BB2CA
:103450008246A2F8E83416B13368B2881A83BAF10A
:10346000000F04D0DAF80030BAF804201A831121D2
:10347000304605F05FF81121504605F05BF84FF03B
:10348000090965272EB13368B28819690A4240F0EC
:103490002881013F00F0228109F08CFD04460D4691
:1034A00009F088FD001B61EB0501052871F100039F
:1034B000F6D3E7E7088880B240F4007008804FF642
:1034C000FF3088820121C8E9022388F8021082E6D1
:1034D000D8F81400002800F07281D8F8184014F8C9
:1034E000016B0E8201381225C8E90504C8E90223E0
:1034F00088F802506FE6888A0C8B81B2694841EAED
:10350000044130EA01017FF458AE0A2388F8023002
:1035100061E6088880B240F480700880092088F84D
:103520000200888A0C8B81B25E4841EA0441C8E9F6
:10353000022330EA01037FF44EAEE6E700240125C2
:103540000A940B940B910A950A98002800F04A817E
:103550000B9814300B900B98006846077FF52DAE42
:10356000D8F81400032800F07281022800F2468186
:10357000088820F480600004000C0880088880B26D
:1035800040F400700880098A88F81C40C8E90223CA
:1035900088F802501FE60020012408900990099144
:1035A00008940898002800F01781099814300990B1
:1035B0000998006847077FF500AEEFF311851020EA
:1035C00080F31288088880B240F400700880D8F830
:1035D00018000E8A471CC8F81870EDB2067085F303
:1035E00011880D8AD8F818106FF001004E1CC8F829
:1035F00018600D70C8E90223C8F8140088F81C4050
:1036000088F80240E7E50020069007900120079126
:103610000690069C002C00F0EB80079C1434079465
:10362000079C246864067FF5C8AD0C8AD8F818108A
:103630004D1CC8F818500C70D8F8141088F81C00ED
:103640000139C8E90223C8F8141088F80200C2E55D
:103650000F9918310F910F990968AEE50599183146
:10366000059105990968A8E5019918310191019919
:103670000968A2E50D9918310D910D9909689CE52D
:103680000399183103910399096896E5088880B277
:1036900040F4007008800121C8E9022388F8021074
:1036A00099E500BF0100030020300020088820F4C5
:1036B00080600004000C0880EFF31184102080F378
:1036C0001288088B088880B240F40070E4B2088049
:1036D00084F311880C2188F802105BE616B1336878
:1036E000B2885A8309F066FC04460D4609F062FC74
:1036F000031B61EB0501052B71F10003F6D316B135
:103700003368B2881A8309F055FC04460D4609F067
:1037100051FC031B61EB0501052B71F10003F6D38E
:10372000B9F101097FF4ADAE16B13368B2885A839E
:1037300009F040FC04460D4609F03CFC031B61EB1C
:103740000501052B71F10003F6D3BAF1000F04D087
:10375000DAF80030BAF804205A8309F02BFC04464A
:103760000D4609F027FC031B61EB0501052B71F1E8
:103770000003F6D316B13368B2881A8309F01AFC35
:1037800004460D4609F016FC031B61EB0502052BF0
:1037900072F10003F6D3BAF1000F04D0DAF800306A
:1037A000BAF804201A8398F90000441C3FF43DAE97
:1037B000FFF7C2FB39E60F2388F802300BE50888D3
:1037C00080B240F4007008800121C8E9022388F823
:1037D0001C1088F80210FEE4099918310991099922
:1037E0000968EAE40B9918310B910B990968E4E434
:1037F00007991831079107990968DEE4D8F818008D
:10380000098A441CC8F818400170D8F81410C8F888
:1038100008200139C8F81410C8F80C30DBE4088817
:1038200080B240F400600880EFF31184102080F330
:103830001288088B088820F480600004000CE4B231
:10384000088084F311880D2188F80210A2E5088809
:1038500020F480600004000C0880EFF31184102035
:1038600080F31288D8F818000D8A461CC8F8186032
:103870000570088880B240F40070E4B2088084F3D8
:103880001188D8F81800098A441CC8F8184001703B
:10389000D8F814100C200239C8E90223C8F8141013
:1038A00088F8020097E498F81030002B3FF4B5AD8B
:1038B0002BE600BF38B5184D9DF814E005EB401419
:1038C0004FEA401C94F8890400B938BD490084F8D7
:1038D0009B24C4F89C3484F899140023049984F838
:1038E00098E4022205F5916584F89A34C4F8A0148E
:1038F00084F8A43484F88A24654409F05BFB02460A
:103900000B462846FFF728FC94F88A34002BF4D1A4
:1039100094F8A40438BD00BF20300020F0B5044660
:1039200083B00D461746061D20680379012B18D079
:10393000022B13D18368DB0732464FF0FF015CBFD7
:103940003246FF2105F080FE30B115B12379DB0747
:10395000EAD40FB123793B7003B0F0BD002003B06F
:10396000F0BD8268417C90F9100002F00102CDE9BF
:103970000062FF22FFF79EFFE6E700BF30B5044676
:1039800083B0051D20680379012B14D0022B0FD1C1
:103990008368DB072A464FF0FF015CBF2A46FF2100
:1039A00005F052FE10B12379DB07EBD403B030BD34
:1039B000002003B030BD8268417C90F9100002F015
:1039C0000102CDE90052FF22FFF774FFEAE700BFD2
:1039D00030B50246044652F8040B0379012B83B03C
:1039E0000ED0022B09D1FF2105F02EFE18B120794F
:1039F000C04300F0010003B030BD002003B030BD73
:103A00008568417C90F91000009205F00105019550
:103A1000FF22FFF74FFFE9E730B5B42283B0044639
:103A2000FF21006804F078FE10B9002003B030BD1B
:103A300020680379012B04F1040514D0022BF4D182
:103A40008368DB072A464FF0FF015CBF2A46FF214F
:103A500005F0FAFD0028E8D02379DB07E6D52068D9
:103A60000379012BEAD18268417C90F9100002F0C1
:103A70000102CDE90052FF22FFF71CFFEAE700BF79
:103A800030B50A4683B00446A521006804F044FE20
:103A900010B9002003B030BD20680379012B04F178
:103AA000040514D0022BF4D18368DB072A464FF0BB
:103AB000FF015CBF2A46FF2105F0C6FD0028E8D0C3
:103AC0002379DB07E6D520680379012BEAD18268E8
:103AD000417C90F9100002F00102CDE90052FF2272
:103AE000FFF7E8FEEAE700BF70B582B0CDE900233A
:103AF0000446FFF791FF10B9002002B070BD2068A6
:103B00005522A52104F008FE0028F5D0251D2068C7
:103B10002A46FF2105F0ECFD0028EDD02379DB07D4
:103B2000F5D40DF1FF350DF1070615F8011F2046FC
:103B3000FFF7A6FF0028DFD0B542F6D1DDE700BFD2
:103B4000002A37D0F0B5013A83B004464E1E51FA30
:103B500082F7051D16F8012F2068A52104F0DCFD71
:103B600090B9002003B0F0BD8268417C90F910004C
:103B700002F00102CDE90052FF22FFF79BFE002870
:103B8000EFD02379DB0710D520680379012BEBD028
:103B9000022BE6D18368DB072A464FF0FF015CBFAA
:103BA0002A46FF2105F050FDE9E7B742D2D10120B6
:103BB00003B0F0BD0120704770B5962282B0044674
:103BC0000E460068FF2104F0A7FD10B9002002B0E6
:103BD00070BD251D20680379012B1FD0022BF5D164
:103BE0008368DB072A464FF0FF015CBF2A46FF21AE
:103BF00005F02AFD0028E9D02379DB07EAD4E12289
:103C00002068114604F088FD0028DFD02068324685
:103C1000FF2102B0BDE8704005F06ABD8268417CBA
:103C200090F9100002F00102CDE90052FF22FFF7E7
:103C300041FEDFE7002A46D0F0B5013A4F1C83B0C1
:103C400004460E4657FA82F7051D20689622FF218A
:103C500004F062FD90B9002003B0F0BD8268417CA1
:103C600090F9100002F00102CDE90052FF22FFF7A7
:103C700021FE0028EFD02379DB0710D520680379D7
:103C8000012BEBD0022BE6D18368DB072A464FF0ED
:103C9000FF015CBF2A46FF2105F0D6FCE9E7E122DF
:103CA0002068114604F038FD0028D4D02068324640
:103CB000FF2105F01DFD0028CDD00136BE42C4D144
:103CC000012003B0F0BD0120704700BF70B505466C
:103CD0000B460446164655F8040B82B087211A4657
:103CE00004F01AFD20680379012B18D0022B13D1A0
:103CF0008368DB072A464FF0FF015CBF2A46FF219D
:103D000005F0A2FC30B12379DA07EBD416B1C3F386
:103D10004013337002B070BD002002B070BD8268E5
:103D2000417C90F9100002F00102CDE90052FF221F
:103D3000FFF7C0FDE6E700BF70B5782182B004460A
:103D400016460068002204F0E7FC10B9002002B01B
:103D500070BD251D20680379012B14D0022BF5D1ED
:103D60008368DB072A464FF0FF015CBF2A46FF212C
:103D700005F06AFC0028E9D02379DA07EAD45B0968
:103D8000337002B070BD8268417C90F9100002F07F
:103D90000102CDE90052FF22FFF78CFDEAE700BFE8
:103DA00030B5CC2283B00446A521006804F0B4FCF1
:103DB00010B9002003B030BD20680379012B04F155
:103DC000040514D0022BF4D18368DB072A464FF098
:103DD000FF015CBF2A46FF2105F036FC0028E8D031
:103DE0002379DB07E6D520680379012BEAD18268C5
:103DF000417C90F9100002F00102CDE90052FF224F
:103E0000FFF758FDEAE700BF30B5B42283B004469F
:103E1000FF21006804F080FC10B9002003B030BD21
:103E2000251D20680379012B22D0022BF5D1836850
:103E3000DB072A464FF0FF015CBF2A46FF2105F051
:103E400003FC0028E9D02379DA07EAD4CC21204604
:103E5000FFF716FE0028E0D002E02379DB07DDD56E
:103E600020682A46FF2105F043FC0028F5D1D4E75D
:103E70008268417C90F9100002F00102CDE9005205
:103E8000FF22FFF717FDDCE72DE9F04F89B004466C
:103E9000CDE90623002004F1040B04900291039065
:103EA0005D462046049FFFF7B7FD069BFE0003EB2F
:103EB000C70B20B90AE0237913F0010A0CD020685F
:103EC0002A46FF2105F014FC0028F4D1079B049A30
:103ED0001A7009B0BDE8F08F9B07F7D5F021204696
:103EE000FFF7CEFD0028F1D0069B083E33440127A2
:103EF0000593D0463E46029B002B4AD0082E48D858
:103F000006F1FF3943FA09F909F0010920684FEA7F
:103F1000C912782104F000FC0028D7D0206803796A
:103F2000012B47D0022B43D18368DB072A464FF091
:103F3000FF015CBF2A46FF2105F086FB0028C5D0A3
:103F4000237913F00102E9D103F0600160294FEAFF
:103F5000D31C51D0029919B1082E01D8E145B5D131
:103F6000BCF1000F3AD01BF808303B430BF8083087
:103F70007F00013617F0FF07F6B2BCD108F1010847
:103F80005FFA88F8B8F1080F36D0029B0127002BA2
:103F9000B4D1049BD3B1039BB34217D9059B13F84B
:103FA00008301F4214BF4FF001094FF00009ADE780
:103FB00000208BE78268417C90F9100002F001023A
:103FC000CDE90052FF22FFF775FCB7E7039BA3EB97
:103FD0000609B9FA89F94FEA591997E71BF8081049
:103FE00021EA07010BF80810990941EA531313F06D
:103FF000010F08BFB246BBE7402E06D8079B049AC4
:104000001B7893423FF64DAF60E79BF807C00BF17A
:10401000FF370BF1060B17F8011F082382EA010690
:1040200016F0010F4FEA520218BF82F08C0203F122
:10403000FF3318BFD2B213F0FF034FEA5101EDD1A5
:10404000BB45E8D19445D9D1049B0133DBB204933D
:10405000BAF1000F3FF43AAFCDF80CA0CEE700BFA5
:1040600010B500680379012B84B00C4618D0022BE0
:1040700013D1836813F0010F14BF2221A22103235F
:1040800003AA04F097FD30B1BDF90D3003EB8303B3
:104090001B12E633238004B010BD002004B010BD15
:1040A0008368417C90F9100003F00103019303AB96
:1040B000009322220323FFF7FDFB0028E4D1EAE767
:1040C00038B5184D9DF814E005EB40144FEA401C3C
:1040D00094F8890400B938BD84F89B24C4F89C3452
:1040E00001220023490005F5916584F89A2484F89B
:1040F000A434049A84F898E4022384F89914C4F848
:10410000A02484F88A34654408F054FF02460B4624
:104110002846FFF721F894F88A34002BF4D194F85C
:10412000A40438BD2030002010B504682379012B89
:1041300084B011D0022B0CD1A368DB074FF0F00242
:104140004CBFFF217F21204604B0BDE8104004F0A1
:1041500091BA002004B010BDA268617C94F91000EF
:1041600002F0010201920DF10F020092F024FF22F1
:104170008DF80F40FFF7A4FF04B010BD70B50568BF
:104180002B79012B84B004460E4616D0022B11D198
:10419000AB68E122DB074CBF11466121284604F0E1
:1041A00069FA38B120683246FF2104B0BDE870409A
:1041B00005F09EBA002004B070BDAA68697C95F92C
:1041C000100002F001020DF10F0501920095E122AD
:1041D0008DF80F20FFF774FFE3E700BF70B50568A7
:1041E0002B79012B84B004460E4617D0022B12D136
:1041F000AB68DB074FF0C3024CBFE12161212846C9
:1042000004F038FA38B120683246FF2104B0BDE826
:10421000704005F06DBA002004B070BDAA6895F931
:104220001000697C02F0010201920DF10F02009270
:10423000C3228DF80F20E122FFF742FFE2E700BF23
:1042400010B504682379CA4341EA0211012B84B0F6
:10425000CAB20FD0022B0AD1A368DB074CBFD22110
:104260005221204604B0BDE8104004F003BA0020FB
:1042700004B010BD8DF80F20A268617C94F9100085
:1042800002F001020DF10F04CDE90042D222FFF746
:1042900017FF04B010BD00BF70B505682B79012B66
:1042A00084B004460E461AD0022B15D1AB68DB074A
:1042B0004FF0F0024CBFE1216121284604F0DAF909
:1042C00050B12246FF2152F8040B05F011FA18B143
:1042D0002379337004B070BD002004B070BDAA68AB
:1042E00095F91000697C02F0010201920DF10F02B4
:1042F0000092F0228DF80F20E122FFF7E1FEDFE7C8
:1043000010B504682379012B84B011D0022B0CD195
:10431000A368DB074FF0B4024CBFFF217F2120468A
:1043200004B0BDE8104004F0A5B9002004B010BDF1
:10433000A268617C94F9100002F0010201920DF173
:104340000F020092B424FF228DF80F40FFF7B8FE51
:1043500004B010BD10B504682379012B84B010D0CF
:10436000022B0BD1A368DB070A4620464CBFA521D0
:10437000252104B0BDE8104004F07CB9002004B051
:1043800010BDA26894F910008DF80F1002F0010220
:10439000617C0DF10F04CDE90042A522FFF790FEEC
:1043A00004B010BD10B504682379012B84B011D07E
:1043B000022B0CD1A368DB074FF096024CBFFF2104
:1043C0007F21204604B0BDE8104004F053B900201E
:1043D00004B010BDA268617C94F9100002F00102E3
:1043E00001920DF10F0200929624FF228DF80F40EA
:1043F000FFF766FE04B010BD10B504682379012BE9
:1044000084B010D0022B0BD1A368DB070A462046EC
:104410004CBF8721072104B0BDE8104004F02AB941
:10442000002004B010BDA26894F910008DF80F10A0
:1044300002F00102617C0DF10F04CDE900428722F8
:10444000FFF73EFE04B010BD10B504682379C90122
:10445000012B84B0CAB20BD0022B06D178212046A2
:1044600004B0BDE8104004F005B9002004B010BD50
:104470008DF80F20A268617C94F9100002F001020F
:104480000DF10F04CDE900427822FFF719FE04B0C8
:1044900010BD00BF10B504682379012B84B011D082
:1044A000022B0CD1A368DB074FF055024CBFA521AE
:1044B0002521204604B0BDE8104004F0DBB8002000
:1044C00004B010BDA268617C94F9100002F00102F2
:1044D00001920DF10F0200925524A5228DF80F4094
:1044E000FFF7EEFD04B010BDF0B587B00023824A9F
:1044F00000930193136843F48033136003E0009B3F
:10450000B3F5A04F09D0136803F400330193009B67
:1045100001330093019B002BF1D0774B1B6813F400
:10452000003318BF01230193019B012B01D000BF71
:10453000FDE7714B71491A6C714842F080521A6460
:104540000A6842F440420A609A689A609A6842F4A3
:1045500000429A609A6842F4A0529A6058601A68C1
:1045600042F080721A601A689201FCD5654A40F2E6
:1045700005711160996821F003019960996841F013
:104580000201A2F580629960936803F00C03082B86
:10459000FAD1936803F00C03042B00F08C80082BF5
:1045A00000F08E80584D594BC5F8E43C524BD5F87D
:1045B000E41C9A68564C5748C2F303122A4400265A
:1045C00092F8102FD140544AC5F8E41CE260534AD7
:1045D000596FA260596B524A21F080015963596F9B
:1045E00041F080715967196B0A431A635A6B5A6319
:1045F0009A6B9A631A6C4B490A431A64596C4A4A7B
:104600000A435A6402A948F2FF7302934FF6FF77F8
:104610000396FEF79FFA00F580600297FEF79AFA7C
:1046200000F580600297FEF795FA00F58060FEF7CE
:1046300091FA00F58060FEF78DFA00F58060FEF7D4
:1046400089FA00F58060FEF785FA00F58060FEF7D4
:1046500081FA00F58060FEF77DFA0846FEF718FB48
:10466000D4F8FC30029A3149314843F08073C4F8E1
:10467000FC30304BC3F8B01F5E60196841F0010197
:104680001960D5F8E43C4FF47A71B3FBF1F3013BC8
:10469000B3F1807F2849B2FBF1F2C0F8EC2408D2D4
:1046A0004FF0E022F0215361072384F82310966134
:1046B000136107B0F0BD144D204BC5F8E43C75E71D
:1046C00053685168104D13F4800F01F03F01536897
:1046D00014BF1A4A0D4AB2FBF1F1074A5268C2F3FD
:1046E0000142C3F38813013201FB03F35200B3FB11
:1046F000F2F3C5F8E43C59E700380240007000408E
:1047000008544007003C0240000000200024F40050
:1047100000ED00E0000002400003FA050000000880
:10472000FF916700FFC9FE103357070055CEACC597
:1047300020300020001000E040420F0000127A00FC
:1047400082B0064B002201920193019B03EB800093
:104750000190019B196002B0704700BF50280040D3
:1047600010B51C2005F0F8FD1121044603F0E2FE0F
:104770004CB12368A2885A83C82008F049FC2368FA
:10478000A2881A8310BDBDE81040C82008F040BCC4
:10479000704700BF704700BF704700BF10B5124C94
:1047A00094F8FA3423B9114B4FF480225A6110BDAA
:1047B0004FF0E022D2F8103D23F00603C2F8103D7E
:1047C000FDF78CFD94F8FA34002BECD0D4F80035CA
:1047D0009B68DB07E7D5D4F8FC25136823F00301B9
:1047E00061F307031360DEE720300020003C014046
:1047F0002DE9F04FB34CD4F8FC345A69D2078BB092
:1048000002D50BB0BDE8F08F5A699B6912EA030923
:10481000F7D0C9F3074319F4002F009340F0E1806B
:10482000009B590743D419F0020F5FFA89F603D0B1
:10483000D4F8FC3402225A61B9F1000FC0F2EE81C3
:1048400019F4006FC9F3072540F04A81330708D5F2
:104850009D4B9E48D3F82C3F9847D4F8FC3408224F
:104860005A61F70600F1C481EE0600F16F81A906D6
:1048700000F1E880009BDA0609D5934B9348D3F802
:104880003C3F9847D4F8FC344FF480125A61009BA7
:104890009B06B6D58C4B8D48D3F8403F9847D4F84B
:1048A000FC344FF400125A610BB0BDE8F08FD4F81D
:1048B00000259369D26913401FFA83FABAF1000FF9
:1048C000B1D0DFF81882CDF80C90A8F118050027B8
:1048D0001AF0010F78D0FEB2D4F8002504EB86035D
:1048E0001069D3F80815536B8968F340DB01DBB21C
:1048F00003430B4013F00109D9B240F0AB810A0722
:1049000040F1C881D8F8002008239360994619F037
:10491000800F59D0D5E94CC0D5F82431D8F800E043
:10492000ACEB00018B42DEF8182028BF0B4692B298
:104930000333B2EB930F47D9D4F8002594F8F394DE
:10494000323604EB8603CDE90178674698469446F3
:10495000874237D9D5F82431391A994228BF1946E8
:1049600001F1030BD5F828314FEA9B0BB9F1000F89
:1049700010D18AB203329210D8F8F8640AD04846AF
:10498000013053F8047B37608242F9D1D5E94C708D
:10499000D5F8283108440B44B842C5F82831C5F889
:1049A0003401DEF818300AD195F81C11012202FA00
:1049B00001F1DCF8342022EA0102CCF834209BB269
:1049C0009B45C5D3DDE901785FEA5A0A07F1010783
:1049D00008F1040805F128057FF47AAFDDF80C90A2
:1049E00021E7D4F800359D69DB691D402D0C3FF4AB
:1049F00017AF04F59E68DFF8D0B004F244560027E4
:104A0000C24608E06D0807F1010706F1040608F147
:104A100028083FF405AFEB07F4D5F9B204EB8103A6
:104A2000D4F80025D3F844359B6852691340D80761
:104A3000DAB200F13F81930740F1678133680222C7
:104A40009A60DFE7D4F80035D4F808159A6808684A
:104A5000C2F34102022A06BF032262F30A006FF387
:104A60000A0008605A6842F480725A6006A8FEF78D
:104A70000FF9D4F8FC24D4F80015D368079D6FF320
:104A80008D23D36088681249C0F34100014491F836
:104A9000D010032900F05F810E490F4801262944F8
:104AA00084F8F26481424FF04006A4F8F46400F206
:104AB000AC810E2161F38D234FF40051D36051611D
:104AC000D8E600BF20300020000000201035002074
:104AD000940F0708401E1BFF3F420F00283500209F
:104AE00000238DF8133094F802368DF81330B64B4E
:104AF000B648D3F8343F9847D4F80035D4F8FC24AE
:104B0000986894F8FA344FF400615161002B3FF437
:104B10009DAEC2077FF59AAE94F80536012B7FF45F
:104B200095AE9DF81330032B7FF490AED4F8FC358E
:104B3000A7491A6842F001021A601A6842F003029B
:104B40001A600B6943F006030B617FE6D4F8006539
:104B5000D4F8FC147368002723F0010373600597F1
:104B6000059B43F020030593059B67F38A13059388
:104B7000059B0B610B690593BC46964B03E00A69E4
:104B80000592013B02D0059A9006F8D494F8F124DE
:104B900052B1914B03EB820EFF2253F8040F826057
:104BA000D86B73458260F8D10B2363F3070763F377
:104BB000070C4FF0FF33B3614FF00113F3617761DE
:104BC000C6F810C0336885486FF30A13336094F851
:104BD000F324D4F84435012A186100F0B5804FF46D
:104BE00080534B61784B7948D3F8303F98473EE685
:104BF000D4F8FC349A6922F010029A611A6AC2F35E
:104C00004340022802F00F0100F0B080062800F0B7
:104C100087809A6942F010029A6125E694F8FA3486
:104C20003BB1D4F8FC25136823F0030161F30703BB
:104C30001360D4F80025644B6448D3F8381F5368D8
:104C400023F0010353608847D4F8FC344FF000424E
:104C50005A61F5E5516BD8F800005B4B4FF0010C41
:104C60000CFA07FC21EA0C0151630122D3F8243F1E
:104C7000826031465548984794F8F334012B00F090
:104C8000B18019F0020F3FF442AED8F80030022292
:104C90009A6099E6CB0604D5D8F8003010229A60C5
:104CA00092E6480658BF8946EBD5D8F80030402236
:104CB0009A6089E694F8F324336801208242986070
:104CC00007D11A69D8F87C33C2F312029B1AC8F8CC
:104CD0008C33DBF8203F5046984794F8F334012B8F
:104CE0007FF490AE002F7FF48DAE94F80136052B43
:104CF0007FF488AED4F84435384A1A61384A5A618C
:104D00001A684FF080221A607CE610077FF57AAEB1
:104D1000DBF8283F50469847336808229A6071E6CE
:104D200001EB810104EBC101D4F8C065D1F87C0826
:104D3000C2F30A1202443068C4F8BC0A3068C4F8EE
:104D4000C00AC1F87C2864E7254A5A611A684FF006
:104D500080221A6043E7002184F8F2144FF40071B6
:104D6000A4F8F414092161F38D23A5E647F6F07049
:104D700010423FF44EAFC2F30A1201EB810004EB84
:104D8000C00002F1030C5FEAAC0CD0F87068D4F8F4
:104D9000C0E54FEA810818BF002006D00130DEF8D8
:104DA000007046F8047B8445F8D1414404EBC1010E
:104DB000D1F870081044C1F87008D1F87C0802449A
:104DC000C1F87C2825E700BF000000201035002036
:104DD00000ED00E0400D03002435002018000860BD
:104DE000DC3A0020002F7FF44CAF94F80136042BFE
:104DF0007FF447AFD4F844352B4A1A612B4A5A61E5
:104E00001A684FF080221A603BE72948A5F5740123
:104E1000A1F51051814203D80D2161F38D234BE69A
:104E2000244925482944814203D20C2161F38D2372
:104E300042E62248A5F18C71A1F54341814203D895
:104E40000B2161F38D2337E61D491E482944814219
:104E500003D20A2161F38D232EE61B491B48294406
:104E6000814203D2092161F38D2325E61848A5F17B
:104E7000B771A1F55851814203D2082161F38D2306
:104E80001AE6144914482944814203D2072161F3E8
:104E90008D2311E6114912482944814234BF06216D
:104EA000052161F38D2307E618000860DC3A002035
:104EB000DFC810002013FBFE20D61300FF69180086
:104EC00000D3CEFE40771B00C05BB3FEC091210033
:104ED00040AC2700C01D6AFE40E13300803C36FE36
:104EE000E09C410070B51A4D1A4BC5F8E43A1A4BD4
:104EF00085F8F01A002683F82F6905F6E423C0E947
:104F000054330D230446C0F8583140F20113C0F861
:104F10005C6100F5A271A0F8443163F09FFDE37875
:104F2000C4F8B4631F22C4F8B023012205F214456B
:104F30009342C4F8A853A4F89C2308BFC4F8AC5308
:104F400004F567712046BDE8704063F087BD00BF7F
:104F50002030002055534253281F0020F0B50B7815
:104F600013F0600683B00C46054633D0202E2DD1B9
:104F70004A78FE2A6BD0FF2A63D14A88002A40F083
:104F80008B80CA88002A40F08780190600F184804F
:104F90006148624B80F82F29C5F8B423EA780121D3
:104FA00083F83414A5F89C1303F214431F21012A3B
:104FB000C5F8B013C5F8A83305F5677108BFC5F883
:104FC000AC33284663F04AFD002600E00026304658
:104FD00003B0F0BD4B780A2B6AD00B2B63D0012BAA
:104FE000F5D18B88D9B21B0676D40196019BC06897
:104FF00043F010030193019B036103690193484B44
:1050000003E002690192013B02D0019AD206F8D472
:105010002846424F63F012FC0223217940222846A1
:1050200063F03EFC97F83434022B6DD094F90420E1
:10503000002ACCDA012BCAD001212846FFF752FF03
:10504000C5E761F0E5F90226304603B0F0BD4E88B1
:1050500016BBCC88012C1FD118061DD52F4FD7F8B1
:105060004C349B699847C0B287F8F40AA0B1022378
:1050700007F6F42785F811314FF48073C5E94E44E3
:10508000C5E94A77C5E94C46A5F81C3105F58E718E
:10509000284663F075FC9AE7284661F0B9F90226C4
:1050A000304603B0F0BD1D4B4A8883F8F52A8EE7E1
:1050B000022280F811214FF48072A0F81C21194AB5
:1050C0000123C0E94E33C0E94A22C0E94C3600F55D
:1050D0008E7163F055FC7AE70096009BC06843F040
:1050E00020030093009B61F38A130093009B0361EC
:1050F000036900930A4B03E002690092013B87D0E9
:10510000009A9706F8D483E78121284661F0B8F920
:10511000002387F834345AE7281F0020203000206D
:10512000400D0300153B002010B50D4B93F82F39AF
:10513000022B07D0033B012B02D80021FFF7D2FE40
:10514000002010BD074B93F82114044663F038FD8E
:105150000028F5DA01212046FFF7C4FEF0E700BF82
:10516000281F002020300020F8B5404E96F82F5917
:10517000074655B1012D06D13D4B93F8211463F03C
:105180001FFD002832DB0020F8BD394CB0F8B433E5
:10519000D4F81824C4F8E82A1F2BD4F81C24C4F827
:1051A000EC2A08D1334BD4F814249A4203D194F852
:1051B000211401291FD994F8F63A04EBC3020133F4
:1051C000DBB2042B4FF0050108BF002382F8F81A68
:1051D0004FF4005184F8F63A38460223C2F8FC1A1C
:1051E00084F83434FCF70AF80020F8BD2946384624
:1051F000FFF778FEC7E794F82234013B0F2BDAD88B
:1052000063F0DEFC002827DB96F82F39013B022BE8
:10521000B9D9B4F8183B1BB3042286F82F29164AD3
:10522000C7F85C51C7E95422D4F81C2484F8F05A1A
:10523000934228BF1346D4F8EC2AC7F8583140F2FD
:105240000111A7F84411D31A07F5A2713846C4F822
:10525000EC3A63F003FC96E73846FBF7CFFF92E7A2
:1052600019463846FFF73EFE8DE700BF281F002095
:105270002030002055534243546C002010B54FEAB3
:10528000511E024400EB8E0C624529D901F01F012A
:105290004FF0FF3404FA01F350F82E100B4093FA4C
:1052A000A3F3B3FA83F3DBB2202B16D10CF1040184
:1052B0008A4202D817E08A4212D98C460431DCF8BF
:1052C000003093FAA3F3B3FA83F3DBB2202BF2D0CE
:1052D000ACEB000003EBC00010BD03EB4E1010BDA3
:1052E0004FF0FF3010BD204610BD00BF30B5036940
:1052F0004268494D83B00BB9002A65D0D0ED067ADB
:10530000C46A013377EE807A0361631C012BC0ED20
:10531000067AC36247D0D0ED075A90ED097AD5F8E6
:10532000C81307EE903A30EE656AF8EEE76A8A1A1B
:10533000C6EE267A81688A4277EEA57A30EE670A51
:10534000C0ED087AA6EE007AC0ED077A80ED0A7A01
:1053500080ED097A01D803B030BD012B4EDD07EE98
:10536000904AF8EEE77A87EE270AB5EEC00AF1EE2A
:1053700010FA46DBB5EE400AF1EE10FA44D4F1EE35
:10538000C07AF4EE677AF1EE10FA3AD690ED057A2B
:10539000B4EEE77AF1EE10FA1AD5037B33B30323A8
:1053A000037003B030BDD5F8C8338168DFED1B7AD8
:1053B00080ED080A9A1A8A4280ED070AC0ED097A40
:1053C000C9D9B0EE670ADAE7D5F8C823426095E795
:1053D000D0ED047AD0ED066AF8EE677A022386EE05
:1053E000A77A037080ED067A03B030BDD5F8C813F4
:1053F0004160002203618261C362ACE79FED070A4E
:10540000BDE7DFED067AC1E7019065F075FF019811
:10541000F0EE407AB5E700BF203000200000000029
:1054200070B52DED028B044682B000F148050346AD
:105430000026B1EC017AD3ED067ADA6A77EE877A44
:105440000132012AC3ED067ADA626ED093ED075A73
:1054500093ED096A07EE902A77EE455AF8EEE77A5F
:10546000C5EEA76A76EE857AF0EE466A37EE677A81
:10547000C3ED087AE5EE876AC3ED077AC3ED0A6AE1
:10548000C3ED096A1833AB42D3D103693A4E42687F
:1054900001330361D6F8C8339B1A8268934240D91E
:1054A0009FED368AE36A012B4DDD013B07EE903A12
:1054B00094ED0A7AF8EEE77A87EE270AB5EEC00A8D
:1054C000F1EE10FA4EDBB5EE400AF1EE10FA4CD4D4
:1054D000F1EEC07AF4EE677AF1EE10FA42D690ED72
:1054E000057AB4EEE77AF1EE10FA24D41834AC421F
:1054F000D8D1D0ED047AD0ED066A90ED0C7AD0EDDB
:10550000125AF8EE677A022386EEA76A0370C7EE96
:10551000276A85EEA77A80ED066AC0ED0C6A80EDF9
:10552000127A02B0BDEC028B70BD83ED087A83ED78
:10553000077A5E62A6E7037B43B10323037002B0E0
:10554000BDEC028B70BDB0EE480AC1E70022D6F870
:10555000C813416003618261C36202634364826471
:10556000C365DEE7F0EE487AB9E7019065F0C4FE66
:105570000198F0EE407AADE72030002000000000F6
:10558000F0EEC07AB0EEE07AB4EEE77AF1EE10FA1F
:10559000D4BFB0EE676AB0EE476AB5EE406AF1EE8E
:1055A00010FA48D0B4EEE77AF1EE10FA54BFF0EEFC
:1055B000675AF0EE475AC5EE866ADFED202ADFED26
:1055C000203ADFED204A9FED205A9FED203A9FEDD3
:1055D000204A9FED206AE6EEA23AA6EE834AE6EE66
:1055E000A34AF7EE005AA6EEA45AE6EE845AA6EEB7
:1055F000856AB1EE466AC6EE256AB4EEE77AF1EE48
:1056000010FA48BFDFED147AF5EEC00A48BF77EE16
:10561000E66AF1EE10FA48BFDFED107AB5EEC00A87
:1056200048BF77EEE66AF1EE10FA48BFF1EE666A1F
:10563000B0EE660A7047DFED0A6ADEE739094E3DD3
:10564000E3B59EBE88FA16BE45FE7FBF99FB243F98
:1056500069A2163EA7DFA8B4DB0FC93FDB0F4940A4
:10566000A7DFA83491ED007AD0ED047AD0ED055A89
:1056700090ED064AD0ED074A90ED085A90ED096A80
:10568000D0ED0A6AE7EE077AF7EE003AC0ED047A49
:1056900091ED007AD1ED017AE7EE275A90ED0B7A81
:1056A000C0ED055AD1ED025A91ED003AD0ED0C7AD9
:1056B000A3EE254A80ED064AD1ED005A74EEA54AC4
:1056C000C0ED074AD1ED014AD1ED005AA4EEA55A2A
:1056D00080ED085A91ED015AA5EE056A80ED096A40
:1056E000D1ED015A91ED026AE5EE866AC0ED0A6AD3
:1056F000D1ED016A37EE267A80ED0B7AD1ED026AA0
:1057000091ED007AE6EE877AC0ED0C7A91ED026AAF
:10571000D1ED016AD0ED0D7A90ED0E7A90ED0F4A41
:10572000D0ED104A90ED115AD0ED135AE6EE267ADC
:1057300075EEA35AC0ED0D7AD1ED026AD0ED127A62
:1057400090ED006AA6EEA67AD0ED016A80ED0E7AA1
:1057500091ED027A34EE074A90ED027A80ED0F4A1D
:1057600091ED004A74EE844AC0ED104AD1ED014A31
:1057700035EE245A80ED115A91ED025AC0ED135ABC
:1057800077EE857AC0ED127AD1ED017AD1ED005A2B
:1057900091ED025A67EEA77AE5EEA57AE5EE057A75
:1057A000A5EEA76A80ED006A91ED016AE6EE276A30
:1057B000C0ED016AD1ED026AA6EEA77A80ED027A09
:1057C00090ED037A77EE277AC0ED037A704700BF39
:1057D0002DE9F04F89B0CDE9011200F1100983469F
:1057E00000F13008CE4607464E4605468446002462
:1057F000CDF80C906246284684B1D2ED007A01467D
:105800003B468946F3EC016A99ED007AE6EEC77AE9
:10581000634501F11001C2ED007AF2D10432724504
:1058200000F10400E8D1032C04F1010A30D06246F3
:105830003046ABEB05099CB1D2ED047A009409EB3C
:10584000000329460C46F3EC016A94ED007AE6EE7B
:10585000C77A834201F11001C2ED047AF2D1009CB3
:10586000D2ED046A16ED047AC6EE877A103242450C
:1058700000F11000C2ED007ADDD10CF1140C08F13A
:105880000408043514360EF1100E10375446B1E7F3
:10589000DDE90229002500230135059306930793CE
:1058A000042D52F8043B049305A80BF1140418D0FE
:1058B000F2EC017A04A9C0ED007A4B46B1EC017A12
:1058C000F3EC016AE6EEC77AA342C0ED007AF5D1A7
:1058D0000135042D09F1100900F1040004F114044C
:1058E000E6D1019A08AE76ED017A022510320BF16D
:1058F0004004022D2046A2F1040142ED017A20D09D
:105900002346F3EC016AB2EC017AE6EEC77A9842DC
:10591000C1ED007AF5D154ED016A87EEA67A6B1CD1
:1059200081ED007A14D076ED017A013D0A46022D10
:10593000A4F11404A0F11000A2F1040142ED017AD7
:10594000DED154ED016A87EEA67A02ED017AEAE72C
:1059500009B0BDE8F08F00BF10B584B00C46024618
:1059600069461030FFF734FFDDED007A9DED017AD6
:10597000DDED026AB6EE006A67EE867A27EE067AF9
:1059800066EE866AF4EE677AF1EE10FAC4ED007AFC
:1059900084ED017AC4ED026A0DD6B4EE477AF1EED9
:1059A00010FA13D6F4EE666AF1EE10FA78BF012011
:1059B00016D604B010BD9FED106AF0EEE77AF4EE53
:1059C000467AF1EE10FAE8DD0020F2E7DFED0A7A20
:1059D000B0EEC77AB4EE677AF1EE10FAE2DDF3E7E3
:1059E000DFED057AF0EEE66AF4EE676AF1EE10FAA2
:1059F000D4BF01200020DCE7FFFF7F7FDFED257AA9
:105A0000B4EEE70AF1EE10FA08DD9FED237A30EEEE
:105A1000470AB4EEE70AF1EE10FAF8DCDFED1F7A80
:105A2000B4EEE70AF1EE10FA08D59FED1B7A30EEDE
:105A3000070AB4EEE70AF1EE10FAF8D4DFED187AAF
:105A4000B4EEE70AF1EE10FA18DD30EE670A37EE31
:105A5000C00A60EE007A9FED137A9FED136ADFEDC6
:105A6000136AA7EE876A9FED127AE7EE866A60EE08
:105A7000275AA7EEA67AA5EE870A70479FED0D7A02
:105A8000B4EEC70AF1EE10FA44BF30EE270A37EE43
:105A9000400ADEE7DB0F4940DB0FC940DB0F49C09E
:105AA000DB0FC93F9A7C2E36FAAF4FB93587083CD9
:105AB000A4AA2ABEDB0FC9BF10B53E4CB4FBF2F45A
:105AC000A1420DD300234FF07E52026043608360F9
:105AD000C36003610023836143610362C36110BD3E
